{
  "_format": "hh-sol-artifact-1",
  "contractName": "MockToken",
  "sourceName": "contracts/MockToken.sol",
  "abi": [
    {
      "inputs": [],
      "stateMutability": "nonpayable",
      "type": "constructor"
    },
    {
      "anonymous": false,
      "inputs": [
        {
          "indexed": true,
          "internalType": "address",
          "name": "owner",
          "type": "address"
        },
        {
          "indexed": true,
          "internalType": "address",
          "name": "spender",
          "type": "address"
        },
        {
          "indexed": false,
          "internalType": "uint256",
          "name": "value",
          "type": "uint256"
        }
      ],
      "name": "Approval",
      "type": "event"
    },
    {
      "anonymous": false,
      "inputs": [
        {
          "indexed": true,
          "internalType": "address",
          "name": "from",
          "type": "address"
        },
        {
          "indexed": true,
          "internalType": "address",
          "name": "to",
          "type": "address"
        },
        {
          "indexed": false,
          "internalType": "uint256",
          "name": "value",
          "type": "uint256"
        }
      ],
      "name": "Transfer",
      "type": "event"
    },
    {
      "inputs": [],
      "name": "DOMAIN_SEPARATOR",
      "outputs": [
        {
          "internalType": "bytes32",
          "name": "",
          "type": "bytes32"
        }
      ],
      "stateMutability": "view",
      "type": "function"
    },
    {
      "inputs": [
        {
          "internalType": "address",
          "name": "owner",
          "type": "address"
        },
        {
          "internalType": "address",
          "name": "spender",
          "type": "address"
        }
      ],
      "name": "allowance",
      "outputs": [
        {
          "internalType": "uint256",
          "name": "",
          "type": "uint256"
        }
      ],
      "stateMutability": "view",
      "type": "function"
    },
    {
      "inputs": [
        {
          "internalType": "address",
          "name": "spender",
          "type": "address"
        },
        {
          "internalType": "uint256",
          "name": "amount",
          "type": "uint256"
        }
      ],
      "name": "approve",
      "outputs": [
        {
          "internalType": "bool",
          "name": "",
          "type": "bool"
        }
      ],
      "stateMutability": "nonpayable",
      "type": "function"
    },
    {
      "inputs": [
        {
          "internalType": "address",
          "name": "account",
          "type": "address"
        }
      ],
      "name": "balanceOf",
      "outputs": [
        {
          "internalType": "uint256",
          "name": "",
          "type": "uint256"
        }
      ],
      "stateMutability": "view",
      "type": "function"
    },
    {
      "inputs": [],
      "name": "decimals",
      "outputs": [
        {
          "internalType": "uint8",
          "name": "",
          "type": "uint8"
        }
      ],
      "stateMutability": "view",
      "type": "function"
    },
    {
      "inputs": [
        {
          "internalType": "address",
          "name": "spender",
          "type": "address"
        },
        {
          "internalType": "uint256",
          "name": "subtractedValue",
          "type": "uint256"
        }
      ],
      "name": "decreaseAllowance",
      "outputs": [
        {
          "internalType": "bool",
          "name": "",
          "type": "bool"
        }
      ],
      "stateMutability": "nonpayable",
      "type": "function"
    },
    {
      "inputs": [
        {
          "internalType": "address",
          "name": "spender",
          "type": "address"
        },
        {
          "internalType": "uint256",
          "name": "addedValue",
          "type": "uint256"
        }
      ],
      "name": "increaseAllowance",
      "outputs": [
        {
          "internalType": "bool",
          "name": "",
          "type": "bool"
        }
      ],
      "stateMutability": "nonpayable",
      "type": "function"
    },
    {
      "inputs": [],
      "name": "name",
      "outputs": [
        {
          "internalType": "string",
          "name": "",
          "type": "string"
        }
      ],
      "stateMutability": "view",
      "type": "function"
    },
    {
      "inputs": [
        {
          "internalType": "address",
          "name": "owner",
          "type": "address"
        }
      ],
      "name": "nonces",
      "outputs": [
        {
          "internalType": "uint256",
          "name": "",
          "type": "uint256"
        }
      ],
      "stateMutability": "view",
      "type": "function"
    },
    {
      "inputs": [
        {
          "internalType": "address",
          "name": "owner",
          "type": "address"
        },
        {
          "internalType": "address",
          "name": "spender",
          "type": "address"
        },
        {
          "internalType": "uint256",
          "name": "value",
          "type": "uint256"
        },
        {
          "internalType": "uint256",
          "name": "deadline",
          "type": "uint256"
        },
        {
          "internalType": "uint8",
          "name": "v",
          "type": "uint8"
        },
        {
          "internalType": "bytes32",
          "name": "r",
          "type": "bytes32"
        },
        {
          "internalType": "bytes32",
          "name": "s",
          "type": "bytes32"
        }
      ],
      "name": "permit",
      "outputs": [],
      "stateMutability": "nonpayable",
      "type": "function"
    },
    {
      "inputs": [],
      "name": "symbol",
      "outputs": [
        {
          "internalType": "string",
          "name": "",
          "type": "string"
        }
      ],
      "stateMutability": "view",
      "type": "function"
    },
    {
      "inputs": [],
      "name": "totalSupply",
      "outputs": [
        {
          "internalType": "uint256",
          "name": "",
          "type": "uint256"
        }
      ],
      "stateMutability": "view",
      "type": "function"
    },
    {
      "inputs": [
        {
          "internalType": "address",
          "name": "to",
          "type": "address"
        },
        {
          "internalType": "uint256",
          "name": "amount",
          "type": "uint256"
        }
      ],
      "name": "transfer",
      "outputs": [
        {
          "internalType": "bool",
          "name": "",
          "type": "bool"
        }
      ],
      "stateMutability": "nonpayable",
      "type": "function"
    },
    {
      "inputs": [
        {
          "internalType": "address",
          "name": "from",
          "type": "address"
        },
        {
          "internalType": "address",
          "name": "to",
          "type": "address"
        },
        {
          "internalType": "uint256",
          "name": "amount",
          "type": "uint256"
        }
      ],
      "name": "transferFrom",
      "outputs": [
        {
          "internalType": "bool",
          "name": "",
          "type": "bool"
        }
      ],
      "stateMutability": "nonpayable",
      "type": "function"
    }
  ],
  "bytecode": "0x6101406040523480156200001257600080fd5b506040518060400160405280600981526020017f4d6f636b546f6b656e0000000000000000000000000000000000000000000000815250806040518060400160405280600181526020017f31000000000000000000000000000000000000000000000000000000000000008152506040518060400160405280600981526020017f4d6f636b546f6b656e00000000000000000000000000000000000000000000008152506040518060400160405280600381526020017f4d4b540000000000000000000000000000000000000000000000000000000000815250816003908051906020019062000104929190620003e0565b5080600490805190602001906200011d929190620003e0565b50505060008280519060200120905060008280519060200120905060007f8b73c3c69bb8fe3d512ecc4cf759cc79239f7b179b0ffacaa9a75d522b39400f90508260e081815250508161010081815250504660a08181525050620001898184846200021860201b60201c565b608081815250503073ffffffffffffffffffffffffffffffffffffffff1660c08173ffffffffffffffffffffffffffffffffffffffff16815250508061012081815250505050505050506200021233620001e86200025460201b60201c565b600a620001f691906200062a565b620186a06200020691906200067b565b6200025d60201b60201c565b6200090c565b60008383834630604051602001620002359594939291906200074d565b6040516020818303038152906040528051906020012090509392505050565b60006012905090565b600073ffffffffffffffffffffffffffffffffffffffff168273ffffffffffffffffffffffffffffffffffffffff161415620002d0576040517f08c379a0000000000000000000000000000000000000000000000000000000008152600401620002c7906200080b565b60405180910390fd5b620002e460008383620003d660201b60201c565b8060026000828254620002f891906200082d565b92505081905550806000808473ffffffffffffffffffffffffffffffffffffffff1673ffffffffffffffffffffffffffffffffffffffff16815260200190815260200160002060008282546200034f91906200082d565b925050819055508173ffffffffffffffffffffffffffffffffffffffff16600073ffffffffffffffffffffffffffffffffffffffff167fddf252ad1be2c89b69c2b068fc378daa952ba7f163c4a11628f55a4df523b3ef83604051620003b691906200088a565b60405180910390a3620003d260008383620003db60201b60201c565b5050565b505050565b505050565b828054620003ee90620008d6565b90600052602060002090601f0160209004810192826200041257600085556200045e565b82601f106200042d57805160ff19168380011785556200045e565b828001600101855582156200045e579182015b828111156200045d57825182559160200191906001019062000440565b5b5090506200046d919062000471565b5090565b5b808211156200048c57600081600090555060010162000472565b5090565b7f4e487b7100000000000000000000000000000000000000000000000000000000600052601160045260246000fd5b60008160011c9050919050565b6000808291508390505b60018511156200051e57808604811115620004f657620004f562000490565b5b6001851615620005065780820291505b80810290506200051685620004bf565b9450620004d6565b94509492505050565b6000826200053957600190506200060c565b816200054957600090506200060c565b81600181146200056257600281146200056d57620005a3565b60019150506200060c565b60ff84111562000582576200058162000490565b5b8360020a9150848211156200059c576200059b62000490565b5b506200060c565b5060208310610133831016604e8410600b8410161715620005dd5782820a905083811115620005d757620005d662000490565b5b6200060c565b620005ec8484846001620004cc565b9250905081840481111562000606576200060562000490565b5b81810290505b9392505050565b6000819050919050565b600060ff82169050919050565b6000620006378262000613565b915062000644836200061d565b9250620006737fffffffffffffffffffffffffffffffffffffffffffffffffffffffffffffffff848462000527565b905092915050565b6000620006888262000613565b9150620006958362000613565b9250817fffffffffffffffffffffffffffffffffffffffffffffffffffffffffffffffff0483118215151615620006d157620006d062000490565b5b828202905092915050565b6000819050919050565b620006f181620006dc565b82525050565b620007028162000613565b82525050565b600073ffffffffffffffffffffffffffffffffffffffff82169050919050565b6000620007358262000708565b9050919050565b620007478162000728565b82525050565b600060a082019050620007646000830188620006e6565b620007736020830187620006e6565b620007826040830186620006e6565b620007916060830185620006f7565b620007a060808301846200073c565b9695505050505050565b600082825260208201905092915050565b7f45524332303a206d696e7420746f20746865207a65726f206164647265737300600082015250565b6000620007f3601f83620007aa565b91506200080082620007bb565b602082019050919050565b600060208201905081810360008301526200082681620007e4565b9050919050565b60006200083a8262000613565b9150620008478362000613565b9250827fffffffffffffffffffffffffffffffffffffffffffffffffffffffffffffffff038211156200087f576200087e62000490565b5b828201905092915050565b6000602082019050620008a16000830184620006f7565b92915050565b7f4e487b7100000000000000000000000000000000000000000000000000000000600052602260045260246000fd5b60006002820490506001821680620008ef57607f821691505b60208210811415620009065762000905620008a7565b5b50919050565b60805160a05160c05160e0516101005161012051611fcc6200095c6000396000610d7901526000610dbb01526000610d9a01526000610ccf01526000610d2501526000610d4e0152611fcc6000f3fe608060405234801561001057600080fd5b50600436106100ea5760003560e01c806370a082311161008c578063a457c2d711610066578063a457c2d714610275578063a9059cbb146102a5578063d505accf146102d5578063dd62ed3e146102f1576100ea565b806370a08231146101f75780637ecebe001461022757806395d89b4114610257576100ea565b806323b872dd116100c857806323b872dd1461015b578063313ce5671461018b5780633644e515146101a957806339509351146101c7576100ea565b806306fdde03146100ef578063095ea7b31461010d57806318160ddd1461013d575b600080fd5b6100f7610321565b604051610104919061129e565b60405180910390f35b61012760048036038101906101229190611359565b6103b3565b60405161013491906113b4565b60405180910390f35b6101456103d6565b60405161015291906113de565b60405180910390f35b610175600480360381019061017091906113f9565b6103e0565b60405161018291906113b4565b60405180910390f35b61019361040f565b6040516101a09190611468565b60405180910390f35b6101b1610418565b6040516101be919061149c565b60405180910390f35b6101e160048036038101906101dc9190611359565b610427565b6040516101ee91906113b4565b60405180910390f35b610211600480360381019061020c91906114b7565b61045e565b60405161021e91906113de565b60405180910390f35b610241600480360381019061023c91906114b7565b6104a6565b60405161024e91906113de565b60405180910390f35b61025f6104f6565b60405161026c919061129e565b60405180910390f35b61028f600480360381019061028a9190611359565b610588565b60405161029c91906113b4565b60405180910390f35b6102bf60048036038101906102ba9190611359565b6105ff565b6040516102cc91906113b4565b60405180910390f35b6102ef60048036038101906102ea919061153c565b610622565b005b61030b600480360381019061030691906115de565b610764565b60405161031891906113de565b60405180910390f35b6060600380546103309061164d565b80601f016020809104026020016040519081016040528092919081815260200182805461035c9061164d565b80156103a95780601f1061037e576101008083540402835291602001916103a9565b820191906000526020600020905b81548152906001019060200180831161038c57829003601f168201915b5050505050905090565b6000806103be6107eb565b90506103cb8185856107f3565b600191505092915050565b6000600254905090565b6000806103eb6107eb565b90506103f88582856109be565b610403858585610a4a565b60019150509392505050565b60006012905090565b6000610422610ccb565b905090565b6000806104326107eb565b90506104538185856104448589610764565b61044e91906116ae565b6107f3565b600191505092915050565b60008060008373ffffffffffffffffffffffffffffffffffffffff1673ffffffffffffffffffffffffffffffffffffffff168152602001908152602001600020549050919050565b60006104ef600560008473ffffffffffffffffffffffffffffffffffffffff1673ffffffffffffffffffffffffffffffffffffffff168152602001908152602001600020610de5565b9050919050565b6060600480546105059061164d565b80601f01602080910402602001604051908101604052809291908181526020018280546105319061164d565b801561057e5780601f106105535761010080835404028352916020019161057e565b820191906000526020600020905b81548152906001019060200180831161056157829003601f168201915b5050505050905090565b6000806105936107eb565b905060006105a18286610764565b9050838110156105e6576040517f08c379a00000000000000000000000000000000000000000000000000000000081526004016105dd90611776565b60405180910390fd5b6105f382868684036107f3565b60019250505092915050565b60008061060a6107eb565b9050610617818585610a4a565b600191505092915050565b83421115610665576040517f08c379a000000000000000000000000000000000000000000000000000000000815260040161065c906117e2565b60405180910390fd5b60007f6e71edae12b1b97f4d1f60370fef10105fa2faae0126114a169c64845d6126c98888886106948c610df3565b896040516020016106aa96959493929190611811565b60405160208183030381529060405280519060200120905060006106cd82610e51565b905060006106dd82878787610e6b565b90508973ffffffffffffffffffffffffffffffffffffffff168173ffffffffffffffffffffffffffffffffffffffff161461074d576040517f08c379a0000000000000000000000000000000000000000000000000000000008152600401610744906118be565b60405180910390fd5b6107588a8a8a6107f3565b50505050505050505050565b6000600160008473ffffffffffffffffffffffffffffffffffffffff1673ffffffffffffffffffffffffffffffffffffffff16815260200190815260200160002060008373ffffffffffffffffffffffffffffffffffffffff1673ffffffffffffffffffffffffffffffffffffffff16815260200190815260200160002054905092915050565b600033905090565b600073ffffffffffffffffffffffffffffffffffffffff168373ffffffffffffffffffffffffffffffffffffffff161415610863576040517f08c379a000000000000000000000000000000000000000000000000000000000815260040161085a90611950565b60405180910390fd5b600073ffffffffffffffffffffffffffffffffffffffff168273ffffffffffffffffffffffffffffffffffffffff1614156108d3576040517f08c379a00000000000000000000000000000000000000000000000000000000081526004016108ca906119e2565b60405180910390fd5b80600160008573ffffffffffffffffffffffffffffffffffffffff1673ffffffffffffffffffffffffffffffffffffffff16815260200190815260200160002060008473ffffffffffffffffffffffffffffffffffffffff1673ffffffffffffffffffffffffffffffffffffffff168152602001908152602001600020819055508173ffffffffffffffffffffffffffffffffffffffff168373ffffffffffffffffffffffffffffffffffffffff167f8c5be1e5ebec7d5bd14f71427d1e84f3dd0314c0f7b2291e5b200ac8c7c3b925836040516109b191906113de565b60405180910390a3505050565b60006109ca8484610764565b90507fffffffffffffffffffffffffffffffffffffffffffffffffffffffffffffffff8114610a445781811015610a36576040517f08c379a0000000000000000000000000000000000000000000000000000000008152600401610a2d90611a4e565b60405180910390fd5b610a4384848484036107f3565b5b50505050565b600073ffffffffffffffffffffffffffffffffffffffff168373ffffffffffffffffffffffffffffffffffffffff161415610aba576040517f08c379a0000000000000000000000000000000000000000000000000000000008152600401610ab190611ae0565b60405180910390fd5b600073ffffffffffffffffffffffffffffffffffffffff168273ffffffffffffffffffffffffffffffffffffffff161415610b2a576040517f08c379a0000000000000000000000000000000000000000000000000000000008152600401610b2190611b72565b60405180910390fd5b610b35838383610e96565b60008060008573ffffffffffffffffffffffffffffffffffffffff1673ffffffffffffffffffffffffffffffffffffffff16815260200190815260200160002054905081811015610bbb576040517f08c379a0000000000000000000000000000000000000000000000000000000008152600401610bb290611c04565b60405180910390fd5b8181036000808673ffffffffffffffffffffffffffffffffffffffff1673ffffffffffffffffffffffffffffffffffffffff16815260200190815260200160002081905550816000808573ffffffffffffffffffffffffffffffffffffffff1673ffffffffffffffffffffffffffffffffffffffff1681526020019081526020016000206000828254610c4e91906116ae565b925050819055508273ffffffffffffffffffffffffffffffffffffffff168473ffffffffffffffffffffffffffffffffffffffff167fddf252ad1be2c89b69c2b068fc378daa952ba7f163c4a11628f55a4df523b3ef84604051610cb291906113de565b60405180910390a3610cc5848484610e9b565b50505050565b60007f000000000000000000000000000000000000000000000000000000000000000073ffffffffffffffffffffffffffffffffffffffff163073ffffffffffffffffffffffffffffffffffffffff16148015610d4757507f000000000000000000000000000000000000000000000000000000000000000046145b15610d74577f00000000000000000000000000000000000000000000000000000000000000009050610de2565b610ddf7f00000000000000000000000000000000000000000000000000000000000000007f00000000000000000000000000000000000000000000000000000000000000007f0000000000000000000000000000000000000000000000000000000000000000610ea0565b90505b90565b600081600001549050919050565b600080600560008473ffffffffffffffffffffffffffffffffffffffff1673ffffffffffffffffffffffffffffffffffffffff1681526020019081526020016000209050610e4081610de5565b9150610e4b81610eda565b50919050565b6000610e64610e5e610ccb565b83610ef0565b9050919050565b6000806000610e7c87878787610f23565b91509150610e8981611030565b8192505050949350505050565b505050565b505050565b60008383834630604051602001610ebb959493929190611c24565b6040516020818303038152906040528051906020012090509392505050565b6001816000016000828254019250508190555050565b60008282604051602001610f05929190611cef565b60405160208183030381529060405280519060200120905092915050565b6000807f7fffffffffffffffffffffffffffffff5d576e7357a4501ddfe92f46681b20a08360001c1115610f5e576000600391509150611027565b601b8560ff1614158015610f765750601c8560ff1614155b15610f88576000600491509150611027565b600060018787878760405160008152602001604052604051610fad9493929190611d26565b6020604051602081039080840390855afa158015610fcf573d6000803e3d6000fd5b505050602060405103519050600073ffffffffffffffffffffffffffffffffffffffff168173ffffffffffffffffffffffffffffffffffffffff16141561101e57600060019250925050611027565b80600092509250505b94509492505050565b6000600481111561104457611043611d6b565b5b81600481111561105757611056611d6b565b5b141561106257611202565b6001600481111561107657611075611d6b565b5b81600481111561108957611088611d6b565b5b14156110ca576040517f08c379a00000000000000000000000000000000000000000000000000000000081526004016110c190611de6565b60405180910390fd5b600260048111156110de576110dd611d6b565b5b8160048111156110f1576110f0611d6b565b5b1415611132576040517f08c379a000000000000000000000000000000000000000000000000000000000815260040161112990611e52565b60405180910390fd5b6003600481111561114657611145611d6b565b5b81600481111561115957611158611d6b565b5b141561119a576040517f08c379a000000000000000000000000000000000000000000000000000000000815260040161119190611ee4565b60405180910390fd5b6004808111156111ad576111ac611d6b565b5b8160048111156111c0576111bf611d6b565b5b1415611201576040517f08c379a00000000000000000000000000000000000000000000000000000000081526004016111f890611f76565b60405180910390fd5b5b50565b600081519050919050565b600082825260208201905092915050565b60005b8381101561123f578082015181840152602081019050611224565b8381111561124e576000848401525b50505050565b6000601f19601f8301169050919050565b600061127082611205565b61127a8185611210565b935061128a818560208601611221565b61129381611254565b840191505092915050565b600060208201905081810360008301526112b88184611265565b905092915050565b600080fd5b600073ffffffffffffffffffffffffffffffffffffffff82169050919050565b60006112f0826112c5565b9050919050565b611300816112e5565b811461130b57600080fd5b50565b60008135905061131d816112f7565b92915050565b6000819050919050565b61133681611323565b811461134157600080fd5b50565b6000813590506113538161132d565b92915050565b600080604083850312156113705761136f6112c0565b5b600061137e8582860161130e565b925050602061138f85828601611344565b9150509250929050565b60008115159050919050565b6113ae81611399565b82525050565b60006020820190506113c960008301846113a5565b92915050565b6113d881611323565b82525050565b60006020820190506113f360008301846113cf565b92915050565b600080600060608486031215611412576114116112c0565b5b60006114208682870161130e565b93505060206114318682870161130e565b925050604061144286828701611344565b9150509250925092565b600060ff82169050919050565b6114628161144c565b82525050565b600060208201905061147d6000830184611459565b92915050565b6000819050919050565b61149681611483565b82525050565b60006020820190506114b1600083018461148d565b92915050565b6000602082840312156114cd576114cc6112c0565b5b60006114db8482850161130e565b91505092915050565b6114ed8161144c565b81146114f857600080fd5b50565b60008135905061150a816114e4565b92915050565b61151981611483565b811461152457600080fd5b50565b60008135905061153681611510565b92915050565b600080600080600080600060e0888a03121561155b5761155a6112c0565b5b60006115698a828b0161130e565b975050602061157a8a828b0161130e565b965050604061158b8a828b01611344565b955050606061159c8a828b01611344565b94505060806115ad8a828b016114fb565b93505060a06115be8a828b01611527565b92505060c06115cf8a828b01611527565b91505092959891949750929550565b600080604083850312156115f5576115f46112c0565b5b60006116038582860161130e565b92505060206116148582860161130e565b9150509250929050565b7f4e487b7100000000000000000000000000000000000000000000000000000000600052602260045260246000fd5b6000600282049050600182168061166557607f821691505b602082108114156116795761167861161e565b5b50919050565b7f4e487b7100000000000000000000000000000000000000000000000000000000600052601160045260246000fd5b60006116b982611323565b91506116c483611323565b9250827fffffffffffffffffffffffffffffffffffffffffffffffffffffffffffffffff038211156116f9576116f861167f565b5b828201905092915050565b7f45524332303a2064656372656173656420616c6c6f77616e63652062656c6f7760008201527f207a65726f000000000000000000000000000000000000000000000000000000602082015250565b6000611760602583611210565b915061176b82611704565b604082019050919050565b6000602082019050818103600083015261178f81611753565b9050919050565b7f45524332305065726d69743a206578706972656420646561646c696e65000000600082015250565b60006117cc601d83611210565b91506117d782611796565b602082019050919050565b600060208201905081810360008301526117fb816117bf565b9050919050565b61180b816112e5565b82525050565b600060c082019050611826600083018961148d565b6118336020830188611802565b6118406040830187611802565b61184d60608301866113cf565b61185a60808301856113cf565b61186760a08301846113cf565b979650505050505050565b7f45524332305065726d69743a20696e76616c6964207369676e61747572650000600082015250565b60006118a8601e83611210565b91506118b382611872565b602082019050919050565b600060208201905081810360008301526118d78161189b565b9050919050565b7f45524332303a20617070726f76652066726f6d20746865207a65726f2061646460008201527f7265737300000000000000000000000000000000000000000000000000000000602082015250565b600061193a602483611210565b9150611945826118de565b604082019050919050565b600060208201905081810360008301526119698161192d565b9050919050565b7f45524332303a20617070726f766520746f20746865207a65726f20616464726560008201527f7373000000000000000000000000000000000000000000000000000000000000602082015250565b60006119cc602283611210565b91506119d782611970565b604082019050919050565b600060208201905081810360008301526119fb816119bf565b9050919050565b7f45524332303a20696e73756666696369656e7420616c6c6f77616e6365000000600082015250565b6000611a38601d83611210565b9150611a4382611a02565b602082019050919050565b60006020820190508181036000830152611a6781611a2b565b9050919050565b7f45524332303a207472616e736665722066726f6d20746865207a65726f20616460008201527f6472657373000000000000000000000000000000000000000000000000000000602082015250565b6000611aca602583611210565b9150611ad582611a6e565b604082019050919050565b60006020820190508181036000830152611af981611abd565b9050919050565b7f45524332303a207472616e7366657220746f20746865207a65726f206164647260008201527f6573730000000000000000000000000000000000000000000000000000000000602082015250565b6000611b5c602383611210565b9150611b6782611b00565b604082019050919050565b60006020820190508181036000830152611b8b81611b4f565b9050919050565b7f45524332303a207472616e7366657220616d6f756e742065786365656473206260008201527f616c616e63650000000000000000000000000000000000000000000000000000602082015250565b6000611bee602683611210565b9150611bf982611b92565b604082019050919050565b60006020820190508181036000830152611c1d81611be1565b9050919050565b600060a082019050611c39600083018861148d565b611c46602083018761148d565b611c53604083018661148d565b611c6060608301856113cf565b611c6d6080830184611802565b9695505050505050565b600081905092915050565b7f1901000000000000000000000000000000000000000000000000000000000000600082015250565b6000611cb8600283611c77565b9150611cc382611c82565b600282019050919050565b6000819050919050565b611ce9611ce482611483565b611cce565b82525050565b6000611cfa82611cab565b9150611d068285611cd8565b602082019150611d168284611cd8565b6020820191508190509392505050565b6000608082019050611d3b600083018761148d565b611d486020830186611459565b611d55604083018561148d565b611d62606083018461148d565b95945050505050565b7f4e487b7100000000000000000000000000000000000000000000000000000000600052602160045260246000fd5b7f45434453413a20696e76616c6964207369676e61747572650000000000000000600082015250565b6000611dd0601883611210565b9150611ddb82611d9a565b602082019050919050565b60006020820190508181036000830152611dff81611dc3565b9050919050565b7f45434453413a20696e76616c6964207369676e6174757265206c656e67746800600082015250565b6000611e3c601f83611210565b9150611e4782611e06565b602082019050919050565b60006020820190508181036000830152611e6b81611e2f565b9050919050565b7f45434453413a20696e76616c6964207369676e6174757265202773272076616c60008201527f7565000000000000000000000000000000000000000000000000000000000000602082015250565b6000611ece602283611210565b9150611ed982611e72565b604082019050919050565b60006020820190508181036000830152611efd81611ec1565b9050919050565b7f45434453413a20696e76616c6964207369676e6174757265202776272076616c60008201527f7565000000000000000000000000000000000000000000000000000000000000602082015250565b6000611f60602283611210565b9150611f6b82611f04565b604082019050919050565b60006020820190508181036000830152611f8f81611f53565b905091905056fea2646970667358221220afa1575ea17cea764fbc94d762ffa8509fe24ac9897783ae3da3f147e1c9341b64736f6c63430008090033",
  "linkReferences": {},
  "deployedLinkReferences": {}
}