{
  "_format": "hh-sol-artifact-1",
  "contractName": "PermitProcessor",
  "sourceName": "contracts/PermitProcessor.sol",
  "abi": [
    {
      "inputs": [
        {
          "internalType": "address",
          "name": "mockTokenAddress_",
          "type": "address"
        }
      ],
      "stateMutability": "nonpayable",
      "type": "constructor"
    },
    {
      "inputs": [
        {
          "internalType": "address",
          "name": "owner",
          "type": "address"
        },
        {
          "internalType": "address",
          "name": "spender",
          "type": "address"
        },
        {
          "internalType": "uint256",
          "name": "value",
          "type": "uint256"
        },
        {
          "internalType": "uint256",
          "name": "deadline",
          "type": "uint256"
        }
      ],
      "name": "getPermitDigest",
      "outputs": [
        {
          "internalType": "bytes32",
          "name": "digest",
          "type": "bytes32"
        }
      ],
      "stateMutability": "view",
      "type": "function"
    },
    {
      "inputs": [],
      "name": "mockTokenAddress",
      "outputs": [
        {
          "internalType": "address",
          "name": "",
          "type": "address"
        }
      ],
      "stateMutability": "view",
      "type": "function"
    },
    {
      "inputs": [
        {
          "internalType": "address",
          "name": "owner",
          "type": "address"
        },
        {
          "internalType": "address",
          "name": "spender",
          "type": "address"
        },
        {
          "internalType": "uint256",
          "name": "value",
          "type": "uint256"
        },
        {
          "internalType": "uint256",
          "name": "deadline",
          "type": "uint256"
        },
        {
          "internalType": "uint8",
          "name": "v",
          "type": "uint8"
        },
        {
          "internalType": "bytes32",
          "name": "r",
          "type": "bytes32"
        },
        {
          "internalType": "bytes32",
          "name": "s",
          "type": "bytes32"
        }
      ],
      "name": "transferFromWithPermit",
      "outputs": [],
      "stateMutability": "nonpayable",
      "type": "function"
    }
  ],
  "bytecode": "0x608060405234801561001057600080fd5b50604051610b39380380610b39833981810160405281019061003291906100db565b806000806101000a81548173ffffffffffffffffffffffffffffffffffffffff021916908373ffffffffffffffffffffffffffffffffffffffff16021790555050610108565b600080fd5b600073ffffffffffffffffffffffffffffffffffffffff82169050919050565b60006100a88261007d565b9050919050565b6100b88161009d565b81146100c357600080fd5b50565b6000815190506100d5816100af565b92915050565b6000602082840312156100f1576100f0610078565b5b60006100ff848285016100c6565b91505092915050565b610a22806101176000396000f3fe608060405234801561001057600080fd5b50600436106100415760003560e01c806301292d7a14610046578063cd3b3ccd14610064578063d6e03cd414610094575b600080fd5b61004e6100b0565b60405161005b91906104e2565b60405180910390f35b61007e60048036038101906100799190610564565b6100d4565b60405161008b91906105e4565b60405180910390f35b6100ae60048036038101906100a99190610664565b6102a3565b005b60008054906101000a900473ffffffffffffffffffffffffffffffffffffffff1681565b6000807f6e71edae12b1b97f4d1f60370fef10105fa2faae0126114a169c64845d6126c986868660008054906101000a900473ffffffffffffffffffffffffffffffffffffffff1673ffffffffffffffffffffffffffffffffffffffff16637ecebe008b6040518263ffffffff1660e01b815260040161015491906104e2565b60206040518083038186803b15801561016c57600080fd5b505afa158015610180573d6000803e3d6000fd5b505050506040513d601f19601f820116820180604052508101906101a4919061071b565b876040516020016101ba96959493929190610757565b60405160208183030381529060405280519060200120905060008054906101000a900473ffffffffffffffffffffffffffffffffffffffff1673ffffffffffffffffffffffffffffffffffffffff16633644e5156040518163ffffffff1660e01b815260040160206040518083038186803b15801561023857600080fd5b505afa15801561024c573d6000803e3d6000fd5b505050506040513d601f19601f8201168201806040525081019061027091906107cd565b81604051602001610282929190610872565b60405160208183030381529060405280519060200120915050949350505050565b60008054906101000a900473ffffffffffffffffffffffffffffffffffffffff1673ffffffffffffffffffffffffffffffffffffffff1663d505accf888888888888886040518863ffffffff1660e01b815260040161030897969594939291906108b8565b600060405180830381600087803b15801561032257600080fd5b505af1158015610336573d6000803e3d6000fd5b5050505060008054906101000a900473ffffffffffffffffffffffffffffffffffffffff1673ffffffffffffffffffffffffffffffffffffffff166323b872dd8830886040518463ffffffff1660e01b815260040161039793929190610927565b602060405180830381600087803b1580156103b157600080fd5b505af11580156103c5573d6000803e3d6000fd5b505050506040513d601f19601f820116820180604052508101906103e99190610996565b5060008054906101000a900473ffffffffffffffffffffffffffffffffffffffff1673ffffffffffffffffffffffffffffffffffffffff1663a9059cbb33876040518363ffffffff1660e01b81526004016104459291906109c3565b602060405180830381600087803b15801561045f57600080fd5b505af1158015610473573d6000803e3d6000fd5b505050506040513d601f19601f820116820180604052508101906104979190610996565b5050505050505050565b600073ffffffffffffffffffffffffffffffffffffffff82169050919050565b60006104cc826104a1565b9050919050565b6104dc816104c1565b82525050565b60006020820190506104f760008301846104d3565b92915050565b600080fd5b61050b816104c1565b811461051657600080fd5b50565b60008135905061052881610502565b92915050565b6000819050919050565b6105418161052e565b811461054c57600080fd5b50565b60008135905061055e81610538565b92915050565b6000806000806080858703121561057e5761057d6104fd565b5b600061058c87828801610519565b945050602061059d87828801610519565b93505060406105ae8782880161054f565b92505060606105bf8782880161054f565b91505092959194509250565b6000819050919050565b6105de816105cb565b82525050565b60006020820190506105f960008301846105d5565b92915050565b600060ff82169050919050565b610615816105ff565b811461062057600080fd5b50565b6000813590506106328161060c565b92915050565b610641816105cb565b811461064c57600080fd5b50565b60008135905061065e81610638565b92915050565b600080600080600080600060e0888a031215610683576106826104fd565b5b60006106918a828b01610519565b97505060206106a28a828b01610519565b96505060406106b38a828b0161054f565b95505060606106c48a828b0161054f565b94505060806106d58a828b01610623565b93505060a06106e68a828b0161064f565b92505060c06106f78a828b0161064f565b91505092959891949750929550565b60008151905061071581610538565b92915050565b600060208284031215610731576107306104fd565b5b600061073f84828501610706565b91505092915050565b6107518161052e565b82525050565b600060c08201905061076c60008301896105d5565b61077960208301886104d3565b61078660408301876104d3565b6107936060830186610748565b6107a06080830185610748565b6107ad60a0830184610748565b979650505050505050565b6000815190506107c781610638565b92915050565b6000602082840312156107e3576107e26104fd565b5b60006107f1848285016107b8565b91505092915050565b600081905092915050565b7f1901000000000000000000000000000000000000000000000000000000000000600082015250565b600061083b6002836107fa565b915061084682610805565b600282019050919050565b6000819050919050565b61086c610867826105cb565b610851565b82525050565b600061087d8261082e565b9150610889828561085b565b602082019150610899828461085b565b6020820191508190509392505050565b6108b2816105ff565b82525050565b600060e0820190506108cd600083018a6104d3565b6108da60208301896104d3565b6108e76040830188610748565b6108f46060830187610748565b61090160808301866108a9565b61090e60a08301856105d5565b61091b60c08301846105d5565b98975050505050505050565b600060608201905061093c60008301866104d3565b61094960208301856104d3565b6109566040830184610748565b949350505050565b60008115159050919050565b6109738161095e565b811461097e57600080fd5b50565b6000815190506109908161096a565b92915050565b6000602082840312156109ac576109ab6104fd565b5b60006109ba84828501610981565b91505092915050565b60006040820190506109d860008301856104d3565b6109e56020830184610748565b939250505056fea2646970667358221220accb307521e00b9e7fc2d61c307250feead3c28e8933b30fe39a0735a08732ce64736f6c63430008090033",
  "linkReferences": {},
  "deployedLinkReferences": {}
}